:020000040000FA
:1000000070050020650100006D0100006F01000017
:1000100000000000000000000000000000000000E0
:100020000000000000000000000000007701000058
:1000300000000000000000007B0100007D010000C6
:100040007F010000810100008301000085010000A4
:1000500087010000890100008B0100008D01000074
:100060008F01000091010000930100009501000044
:1000700097010000990100009B0100009D01000014
:100080009F010000A1010000A3010000A5010000E4
:10009000A7010000A9010000AB010000AD010000B4
:1000A000AF010000B1010000B3010000B501000084
:1000B000B7010000B9010000BB010000BD01000054
:1000C00000F002F800F03EF80CA030C80838241800
:1000D0002D18A246671EAB4654465D46AC4201D180
:1000E00000F030F87E460F3E0FCCB6460126334274
:1000F00000D0FB1AA246AB463343184770050000F8
:1001000090050000103A02D378C878C1FAD8520797
:1001100001D330C830C101D504680C6070470000BD
:100120000023002400250026103A01D378C1FBD813
:10013000520700D330C100D50B6070471FB51FBDFB
:1001400010B510BD00F051F81146FFF7F7FF00F0B1
:10015000DFF900F069F803B4FFF7F2FF03BC00F029
:100160006FF800001948804719480047FEE7FEE78E
:10017000FEE7FEE7FEE7FEE7FEE7FEE7FEE7FEE757
:10018000FEE7FEE7FEE7FEE7FEE7FEE7FEE7FEE747
:10019000FEE7FEE7FEE7FEE7FEE7FEE7FEE7FEE737
:1001A000FEE7FEE7FEE7FEE7FEE7FEE7FEE7FEE727
:1001B000FEE7FEE7FEE7FEE7FEE7FEE7FEE70000FC
:1001C00004480549054A064B7047000061040000D9
:1001D000C1000000700000207005002070010020A8
:1001E00070010020704770477047754600F024F892
:1001F000AE46050069465346C008C000854618B0A3
:1002000020B5FFF7DDFF60BC00274908B646002691
:10021000C0C5C0C5C0C5C0C5C0C5C0C5C0C5C0C5B6
:10022000403D49008D46704710B50446C046C04663
:100230002046FFF790FF10BD004870470C000020DB
:1002400001491820ABBEFEE72600020070470000FF
:1002500010B50324E40200BF204600F0B8F9FF34D3
:10026000FF340234034840880321C9024018A042E9
:10027000F2D810BD0400002070B52325AD02032480
:10028000E40200BF2A4601214902204600F0C6F9D7
:10029000FF35FF350235FF34FF3402340348408810
:1002A0000321C9024018A042ECD870BD0400002010
:1002B00010B572B60320C0020C49886000680C4972
:1002C00008400121490788420ED10320C00244683A
:1002D000084804600321C902086880F3088800BF49
:1002E00062B604480068804710BD000000ED00E0E1
:1002F0000000FE2F0800002000B5C0229178F822EF
:100300001140144A1278114313480A46E03A130088
:1003100000F0F0F80E0A0E12161A1E1E1E080C101F
:1003200014181C1E0D4813E00D4811E00D480FE095
:100330000D480DE00D480BE00D4809E00D4807E0C1
:100340000D4805E00D4803E00D4801E00D4800BFF1
:1003500000BF00BD201C024040420F000090D003AF
:10036000006CDC020048E80100366E010024F40055
:10037000001BB70000127A00808D5B0000093D0071
:10038000C0C62D0080841E00F8B505460E46002428
:100390000F480090684600F033F813E028786D1C91
:1003A000444000270CE0E007C00F002805D0601093
:1003B000694609884840044600E06410781CC7B2CA
:1003C000082FF0DB3046761E0028E7D12046F8BD26
:1003D0000580000030B504460D4629462046FFF74B
:1003E000D3FF30BD0246002005E0044BC3181B7844
:1003F0001354431C98B28842F7DB70470002500048
:1004000030B5014600220B8800200CE00124844016
:100410001C40002C05D00F24251A0124AC401443A5
:10042000A2B2441CE0B21028F0DB0A8030BD00000C
:1004300070B504460D46044800F0C9F8034A04218B
:10044000014800F0EBF870BD0002500004000020ED
:1004500000B5FFF751FF0149086000BD0000002012
:1004600000B580201B4948711A201A4920390873A9
:100470002B2048733C2088734D20C87300201649F8
:100480004860FFF739FF154908600020C043144950
:10049000086014490860144814490860114903228F
:1004A0001202891848600F49891888600D49891817
:1004B000C8600C49891808610A49891848610949C6
:1004C0008918886107498918C861AC2008494870B3
:1004D00000BD00002004024000B0014000000020E8
:1004E00080E200E000E100E0C0C0C0C000E400E045
:1004F0000010024030B47446641E2578641CAB4280
:1005000004D3635D5B00E31830BC18471D46F8E771
:1005100072B6FFF79DFF04211B48FFF763FF1A48DF
:10052000007801282CD100240025FFF791FEFFF769
:10053000A3FE154841880320C002FFF74BFF044685
:100540001148418823208002FFF744FF0546AC4252
:1005500009D100200C49087004210B48FFF768FFFF
:10056000FFF7A6FE0BE000BFBFF34F8F0748084917
:10057000C860BFF34F8F00BF00BF00BFFDE701E0C1
:10058000FFF796FE00BFFEE7040000200400FA0516
:1005900000ED00E001460820334AD060F1201062EF
:1005A00055205060AA2090600020C043086000BF22
:1005B0002D480068C007C00F0028F9D02A480068FD
:1005C00001221043284A10600020D0607047014685
:1005D0001020254AD060F120106255205060AA20DA
:1005E00090600020C043086000BF1F480068C0073B
:1005F000C00F0028F9D01C480068012210431A4A95
:1006000010600020D0601062104600680422104084
:10061000002801D0012070470020FCE770B5034698
:100620001D46F120104E3062002416E0AA200E4E26
:1006300070605520B06010782870521C6D1C00BF8F
:1006400009480068C007C00F0028F9D006480068B4
:1006500001263043044E3060641C8C42E6D30020F7
:10066000014E306270BD000000000240C41800005E
:10067000000000200C00000004010000D018000061
:100680000C000020640500002001000000000000B4
:10069000000000000000000000000000000000005A
:1006A000000000000000000000000000000000004A
:1006B000000000000000000000000000000000003A
:1006C000000000000000000000000000000000002A
:1018C000EFFFE8FF00000000000000000000000043
:04000005000000C136
:00000001FF
